:020000040800F2
:10000000400400209D0100089D0300085D030008D6
:100010007D03000889020008D505000800000000E3
:10002000000000000000000000000000A50400081F
:10003000A902000800000000B50300085D050008E3
:10004000B7010008B7010008B7010008B7010008B0
:10005000B7010008B7010008B7010008B7010008A0
:10006000B7010008B7010008B7010008B701000890
:10007000B7010008B7010008B7010008B701000880
:10008000B7010008B7010008B7010008B701000870
:10009000B7010008B7010008B7010008B701000860
:1000A000B7010008B7010008B7010008B701000850
:1000B000B7010008B7010008B7010008B701000840
:1000C000B7010008B7010008B7010008B701000830
:1000D000B7010008B7010008B7010008B701000820
:1000E000B7010008B7010008B7010008B701000810
:1000F000B7010008B7010008B7010008B701000800
:10010000B7010008B7010008B7010008B7010008EF
:10011000B7010008B7010008B7010008B7010008DF
:10012000B7010008B7010008B7010008B7010008CF
:10013000B7010008B7010008B7010008B7010008BF
:10014000B7010008B7010008B7010008B7010008AF
:10015000B7010008B7010008B7010008B70100089F
:10016000B7010008B7010008B7010008B70100088F
:10017000B7010008B7010008B7010008B70100087F
:10018000B7010008B7010008DFF80CD000F04AF80A
:10019000004800471909000840040020064880472D
:1001A00006480047FEE7FEE7FEE7FEE7FEE7FEE75C
:1001B000FEE7FEE7FEE7FEE76105000889010008AB
:1001C0002DE9F05F0546002092469B46884606468C
:1001D000814640241BE0284641464746224600F01F
:1001E00042F853465A46C01A914110D31146184658
:1001F000224600F029F82D1A67EB01084F462246E7
:100200000120002100F020F817EB00094E41201ECC
:10021000A4F10104DFDC484631462A464346BDE8E6
:10022000F09F0000064C074D06E0E06840F0010337
:1002300094E8070098471034AC42F6D3FFF7A8FFC4
:10024000300A0008500A0008202A04DB203A00FA8D
:1002500002F1002070479140C2F1200320FA03F31D
:10026000194390407047202A04DB203A21FA02F01B
:100270000021704721FA02F3D040C2F120029140E0
:10028000084319467047000001A000F0B3F9FEE7EB
:100290000A0D204275734661756C745F48616E6427
:1002A0006C65722000000000704701B5009801E005
:1002B000401E00900028FBD108BDF0B500230124AA
:1002C00003270D6804FA03F21540954242D1D0F895
:1002D00000C05E0007FA06F52CEA050CC0F800C065
:1002E00091F804C0D0F800E00CFA06FC4CEA0E0CC1
:1002F000C0F800C091F804C0BCF1010F02D0BCF1FD
:10030000020F1FD1D0F808C02CEA050CC0F808C0B5
:1003100091F805C0D0F808E00CFA06FC4CEA0E0C87
:10032000C0F808C0D0F804C02CEA020CC0F804C021
:10033000426891F806C00CFA03FC1FFA8CFC42EAF2
:100340000C024260C268AA43C260CA79C568B24062
:100350002A43C2605B1C102BB3D3F0BD01A000F098
:1003600049F9FEE70A0D20486172644661756C74B4
:100370005F48616E646C65722000000001A000F0AF
:1003800039F9FEE70A0D204D656D4D616E616765B7
:100390005F48616E646C65722000000001A000F08F
:1003A00029B900000A0D204E4D495F48616E646C0A
:1003B0006572200070470000044A0029116801D0CE
:1003C000014300E081431160704700003038024073
:1003D0007CB501210820FFF7EFFF01248DF80440D0
:1003E000002580208DF8065000908DF807400226E9
:1003F0008DF8056069460B48FFF75FFF012110206B
:10040000FFF7DAFF8DF804400C208DF806500090BD
:100410008DF807408DF8056069460348FFF74DFFEA
:100420007CBD0000000C0240001002401CB50446D8
:100430000E48012150F82400FFF7BEFF0B480021B1
:10044000483830F81400009001208DF804008DF831
:1004500006108DF8070002208DF805000448694653
:1004600050F82400FFF729FF1CBD0000100A000807
:100470001C0000200349044A31F8101052F82000F3
:1004800001837047C80900081C0000200349044A82
:1004900031F8101052F8200041837047C809000855
:1004A0001C000020704700000CB500202749019077
:1004B00000900A6842F480320A604FF4A0630A6830
:1004C00002F400320092019A521C0192009A12B971
:1004D000019A9A42F3D10A68920334D50120009020
:1004E0001A484030026842F08052026018480268A0
:1004F00042F48042026015480830026802600268D7
:1005000042F400420260026842F4A0520260031FFB
:10051000104A1A600A6842F080720A600A68920102
:10052000FCD50D4A40F205611160016821F003011C
:100530000160016841F0020101600168C1F38101BD
:100540000229FAD10CBD00900CBD00000038024019
:100550000070004019544007003C02407047000002
:10056000124810B5016841F470010160104801683B
:1005700041F0010101600E4A002108321160026859
:100580000C4B1A400260031D0B4A1A60026822F4E9
:100590008022026006480C300160FFF785FF0349A6
:1005A0004FF000608039086010BD000088ED00E069
:1005B00000380240FFFFF6FE103000240246002003
:1005C00012880A4200D001207047C1F308018180DF
:1005D0007047000001A000F00DF8FEE70A0D20555D
:1005E000736167654661756C745F48616E646C65C4
:1005F000722000000FB4054B10B503A9044A0298FD
:1006000000F018F810BC5DF814FB0000F5080008B5
:100610003C00002002E008C8121F08C1002AFAD1DD
:1006200070477047002001E001C1121F002AFBD172
:10063000704700002DE9FF4F8DB09B460F460446E2
:10064000002606E025280BD05A460F999047641CD7
:10065000761C20780028F5D111B03046BDE8F08F27
:100660000025A8460122984900E0054314F8013FFF
:10067000203B02FA03F00842F7D120782E2817D148
:1006800014F8010F45F004052A280ED06FF02F0250
:100690002078A0F1300109290AD808EB880102EB83
:1006A000410100EB0108641CF2E757F8048B641C5D
:1006B00020786C280DD004DC4C2812D06A2811D187
:1006C00004E074280DD07A280CD10AE045F4001516
:1006D00007E0617845F48015814202D1641C05F57C
:1006E0008015641C2278692A45D008DC002AB3D022
:1006F000582A69D0632A10D0642A08D13BE0702AB6
:1007000067D0732A13D0752A5CD0782A5CD0104643
:100710005A460F999047761CD3E017F8040B8DF8D2
:10072000000000208DF80100E946012003E057F8A1
:10073000049B4FF0FF3069074FF0000501D40AE039
:100740006D1C45450DDA8542FADB19F805100029C4
:10075000F6D106E06D1C8542FCDB19F80510002976
:10076000F8D12E4404E019F8010B5A460F9990472E
:100770006D1EF8D2A5E00A200021CDE90801C5F3DD
:10078000025002280DD001CFC117031E71F10003E2
:100790000DDA4FF0000CD0EB0C006CEB01012D23B7
:1007A00008E0FF1D27F00707F7E80201EDE72B053A
:1007B00004D52B238DF8283001233BE0EB0739D0FB
:1007C0002023F7E70A2000E010200021CDE90801EE
:1007D00007E01020002145F00405CDE908014FF0A5
:1007E0000808C5F3025002280FD001CF00214FF0B6
:1007F000000A2B071FD5702A0DD0DDE908C38CF045
:10080000100C5CEA030C0CD015E0FF1D27F0070765
:10081000F7E80201EBE740228DF828204FF0010AAB
:100820000BE050EA010306D030238DF828308DF814
:10083000292002239A46582A04D024A20DF1200927
:100840000B9209E026A2F9E7DDE90823FFF7B8FCDF
:100850000B9B9B5C09F8013D50EA0102F4D1ADEB22
:10086000090020300890680701D44FF0010808996A
:10087000884502DDA8EB010000E00020804600254D
:1008800006E00AA85A46405D0F9990476D1C761CF9
:100890005545F6DB04E030205A460F999047761C08
:1008A000B8F10001A8F10108F5DC05E019F8010B29
:1008B0005A460F999047761C0899481E08900029BF
:1008C000F4DC641CC5E60000092801003031323335
:1008D000343536373839616263646566000000007C
:1008E0003031323334353637383941424344454666
:1008F0000000000070B5074D0446C1B22846FFF75E
:1009000064FE40212846FFF759FE0028F9D0204612
:1009100070BD0000001001400020FFF787FD01209E
:10092000FFF784FD0220FFF781FD0320FFF77EFD26
:100930000020FFF7ABFD0120FFF7A8FD0220FFF725
:10094000A5FD0320FFF7A2FDFFF742FD154F164C52
:10095000164D80264FF004084FF008093E80A4F899
:100960001A80A4F81A900020FFF790FD0120FFF7ED
:1009700081FD0220FFF78AFD0320FFF77BFD28465B
:10098000FFF793FC0020FFF775FD0120FFF77EFDC8
:100990000220FFF76FFD0320FFF778FD2846FFF7E1
:1009A00084FCDBE7180C024000100240808D5B00E5
:1009B000000200040004000809000A000A000B00FD
:1009C0000700070007000700080002000100800080
:1009D0000100002000082000010000200008200085
:1009E000000002000500000000000D000B000500E3
:1009F0000600280028001700100000000000040076
:100A000001000000020000000100000002000000E0
:100A1000080000000800000008000000200000009E
:100A200001000000040000002000000001000000A0
:100A3000500A0008000000204000000014060008D2
:100A4000900A00084000002000040000240600086E
:100A5000000000000010014000480040000002407B
:100A6000000402400000024000040240000C02406A
:100A7000000C0240000C0240001402400000024042
:100A80000008024000140240000002400000000084
:040000050800018965
:00000001FF
